{
  "_format": "hh-sol-artifact-1",
  "contractName": "CarmenSandiegoGame",
  "sourceName": "contracts/CarmenSandiegoGame.sol",
  "abi": [
    {
      "inputs": [
        {
          "internalType": "string",
          "name": "_questionsIPFSHash",
          "type": "string"
        }
      ],
      "stateMutability": "nonpayable",
      "type": "constructor"
    },
    {
      "anonymous": false,
      "inputs": [
        {
          "indexed": true,
          "internalType": "address",
          "name": "player",
          "type": "address"
        },
        {
          "indexed": false,
          "internalType": "uint256",
          "name": "gameId",
          "type": "uint256"
        },
        {
          "indexed": false,
          "internalType": "uint256",
          "name": "questionIndex",
          "type": "uint256"
        },
        {
          "indexed": false,
          "internalType": "uint256",
          "name": "answer",
          "type": "uint256"
        },
        {
          "indexed": false,
          "internalType": "bool",
          "name": "correct",
          "type": "bool"
        },
        {
          "indexed": false,
          "internalType": "uint256",
          "name": "timestamp",
          "type": "uint256"
        }
      ],
      "name": "AnswerSubmitted",
      "type": "event"
    },
    {
      "anonymous": false,
      "inputs": [
        {
          "indexed": true,
          "internalType": "address",
          "name": "player",
          "type": "address"
        },
        {
          "indexed": false,
          "internalType": "uint256",
          "name": "gameId",
          "type": "uint256"
        },
        {
          "indexed": false,
          "internalType": "uint256",
          "name": "finalScore",
          "type": "uint256"
        },
        {
          "indexed": false,
          "internalType": "uint256",
          "name": "timestamp",
          "type": "uint256"
        }
      ],
      "name": "CarmenEscaped",
      "type": "event"
    },
    {
      "anonymous": false,
      "inputs": [
        {
          "indexed": true,
          "internalType": "address",
          "name": "player",
          "type": "address"
        },
        {
          "indexed": false,
          "internalType": "uint256",
          "name": "gameId",
          "type": "uint256"
        },
        {
          "indexed": false,
          "internalType": "bool",
          "name": "carmenCaught",
          "type": "bool"
        },
        {
          "indexed": false,
          "internalType": "uint256",
          "name": "score",
          "type": "uint256"
        },
        {
          "indexed": false,
          "internalType": "uint256",
          "name": "timestamp",
          "type": "uint256"
        }
      ],
      "name": "GameCompleted",
      "type": "event"
    },
    {
      "anonymous": false,
      "inputs": [
        {
          "indexed": true,
          "internalType": "address",
          "name": "player",
          "type": "address"
        },
        {
          "indexed": false,
          "internalType": "uint256",
          "name": "gameId",
          "type": "uint256"
        },
        {
          "indexed": false,
          "internalType": "uint256[10]",
          "name": "questionIds",
          "type": "uint256[10]"
        },
        {
          "indexed": false,
          "internalType": "uint256",
          "name": "timestamp",
          "type": "uint256"
        }
      ],
      "name": "GameStarted",
      "type": "event"
    },
    {
      "inputs": [],
      "name": "QUESTIONS_PER_GAME",
      "outputs": [
        {
          "internalType": "uint256",
          "name": "",
          "type": "uint256"
        }
      ],
      "stateMutability": "view",
      "type": "function"
    },
    {
      "inputs": [],
      "name": "TOTAL_QUESTIONS",
      "outputs": [
        {
          "internalType": "uint256",
          "name": "",
          "type": "uint256"
        }
      ],
      "stateMutability": "view",
      "type": "function"
    },
    {
      "inputs": [],
      "name": "gameCounter",
      "outputs": [
        {
          "internalType": "uint256",
          "name": "",
          "type": "uint256"
        }
      ],
      "stateMutability": "view",
      "type": "function"
    },
    {
      "inputs": [
        {
          "internalType": "uint256",
          "name": "",
          "type": "uint256"
        }
      ],
      "name": "gameIdToPlayer",
      "outputs": [
        {
          "internalType": "address",
          "name": "",
          "type": "address"
        }
      ],
      "stateMutability": "view",
      "type": "function"
    },
    {
      "inputs": [
        {
          "internalType": "address",
          "name": "player",
          "type": "address"
        }
      ],
      "name": "getCurrentQuestion",
      "outputs": [
        {
          "internalType": "uint256",
          "name": "questionId",
          "type": "uint256"
        },
        {
          "internalType": "uint8",
          "name": "questionIndex",
          "type": "uint8"
        }
      ],
      "stateMutability": "view",
      "type": "function"
    },
    {
      "inputs": [
        {
          "internalType": "address",
          "name": "player",
          "type": "address"
        }
      ],
      "name": "getGameState",
      "outputs": [
        {
          "internalType": "uint256[10]",
          "name": "questionIds",
          "type": "uint256[10]"
        },
        {
          "internalType": "uint256[10]",
          "name": "playerAnswers",
          "type": "uint256[10]"
        },
        {
          "internalType": "bool[10]",
          "name": "correctAnswers",
          "type": "bool[10]"
        },
        {
          "internalType": "uint8",
          "name": "currentQuestion",
          "type": "uint8"
        },
        {
          "internalType": "uint8",
          "name": "correctCount",
          "type": "uint8"
        },
        {
          "internalType": "bool",
          "name": "isActive",
          "type": "bool"
        },
        {
          "internalType": "bool",
          "name": "carmenCaught",
          "type": "bool"
        },
        {
          "internalType": "uint256",
          "name": "startTime",
          "type": "uint256"
        },
        {
          "internalType": "uint256",
          "name": "endTime",
          "type": "uint256"
        }
      ],
      "stateMutability": "view",
      "type": "function"
    },
    {
      "inputs": [],
      "name": "getGlobalStats",
      "outputs": [
        {
          "internalType": "uint256",
          "name": "totalGames",
          "type": "uint256"
        },
        {
          "internalType": "uint256",
          "name": "totalWins",
          "type": "uint256"
        },
        {
          "internalType": "uint256",
          "name": "globalWinRate",
          "type": "uint256"
        }
      ],
      "stateMutability": "view",
      "type": "function"
    },
    {
      "inputs": [
        {
          "internalType": "address",
          "name": "player",
          "type": "address"
        }
      ],
      "name": "getPlayerStats",
      "outputs": [
        {
          "internalType": "uint256",
          "name": "gamesPlayed",
          "type": "uint256"
        },
        {
          "internalType": "uint256",
          "name": "wins",
          "type": "uint256"
        },
        {
          "internalType": "uint256",
          "name": "winRate",
          "type": "uint256"
        }
      ],
      "stateMutability": "view",
      "type": "function"
    },
    {
      "inputs": [
        {
          "internalType": "address",
          "name": "player",
          "type": "address"
        }
      ],
      "name": "hasActiveGame",
      "outputs": [
        {
          "internalType": "bool",
          "name": "",
          "type": "bool"
        }
      ],
      "stateMutability": "view",
      "type": "function"
    },
    {
      "inputs": [
        {
          "internalType": "address",
          "name": "",
          "type": "address"
        }
      ],
      "name": "playerGameCount",
      "outputs": [
        {
          "internalType": "uint256",
          "name": "",
          "type": "uint256"
        }
      ],
      "stateMutability": "view",
      "type": "function"
    },
    {
      "inputs": [
        {
          "internalType": "address",
          "name": "",
          "type": "address"
        }
      ],
      "name": "playerGames",
      "outputs": [
        {
          "internalType": "uint8",
          "name": "currentQuestion",
          "type": "uint8"
        },
        {
          "internalType": "uint8",
          "name": "correctCount",
          "type": "uint8"
        },
        {
          "internalType": "bool",
          "name": "isActive",
          "type": "bool"
        },
        {
          "internalType": "bool",
          "name": "carmenCaught",
          "type": "bool"
        },
        {
          "internalType": "uint256",
          "name": "startTime",
          "type": "uint256"
        },
        {
          "internalType": "uint256",
          "name": "endTime",
          "type": "uint256"
        }
      ],
      "stateMutability": "view",
      "type": "function"
    },
    {
      "inputs": [
        {
          "internalType": "address",
          "name": "",
          "type": "address"
        }
      ],
      "name": "playerWins",
      "outputs": [
        {
          "internalType": "uint256",
          "name": "",
          "type": "uint256"
        }
      ],
      "stateMutability": "view",
      "type": "function"
    },
    {
      "inputs": [],
      "name": "questionsIPFSHash",
      "outputs": [
        {
          "internalType": "string",
          "name": "",
          "type": "string"
        }
      ],
      "stateMutability": "view",
      "type": "function"
    },
    {
      "inputs": [
        {
          "internalType": "uint256[10]",
          "name": "questionIds",
          "type": "uint256[10]"
        }
      ],
      "name": "startGame",
      "outputs": [],
      "stateMutability": "nonpayable",
      "type": "function"
    },
    {
      "inputs": [
        {
          "internalType": "uint256",
          "name": "answerIndex",
          "type": "uint256"
        },
        {
          "internalType": "uint256",
          "name": "correctAnswerIndex",
          "type": "uint256"
        }
      ],
      "name": "submitAnswer",
      "outputs": [],
      "stateMutability": "nonpayable",
      "type": "function"
    },
    {
      "inputs": [],
      "name": "totalCarmenCaught",
      "outputs": [
        {
          "internalType": "uint256",
          "name": "",
          "type": "uint256"
        }
      ],
      "stateMutability": "view",
      "type": "function"
    },
    {
      "inputs": [],
      "name": "totalGamesPlayed",
      "outputs": [
        {
          "internalType": "uint256",
          "name": "",
          "type": "uint256"
        }
      ],
      "stateMutability": "view",
      "type": "function"
    },
    {
      "inputs": [
        {
          "internalType": "string",
          "name": "newHash",
          "type": "string"
        }
      ],
      "name": "updateQuestionsHash",
      "outputs": [],
      "stateMutability": "nonpayable",
      "type": "function"
    }
  ],
  "bytecode": "0x60806040523480156200001157600080fd5b506040516200168e3803806200168e833981016040819052620000349162000060565b6000620000428282620001c4565b505062000290565b634e487b7160e01b600052604160045260246000fd5b600060208083850312156200007457600080fd5b82516001600160401b03808211156200008c57600080fd5b818501915085601f830112620000a157600080fd5b815181811115620000b657620000b66200004a565b604051601f8201601f19908116603f01168101908382118183101715620000e157620000e16200004a565b816040528281528886848701011115620000fa57600080fd5b600093505b828410156200011e5784840186015181850187015292850192620000ff565b600086848301015280965050505050505092915050565b600181811c908216806200014a57607f821691505b6020821081036200016b57634e487b7160e01b600052602260045260246000fd5b50919050565b601f821115620001bf57600081815260208120601f850160051c810160208610156200019a5750805b601f850160051c820191505b81811015620001bb57828155600101620001a6565b5050505b505050565b81516001600160401b03811115620001e057620001e06200004a565b620001f881620001f1845462000135565b8462000171565b602080601f831160018114620002305760008415620002175750858301515b600019600386901b1c1916600185901b178555620001bb565b600085815260208120601f198616915b82811015620002615788860151825594840194600190910190840162000240565b5085821015620002805787850151600019600388901b60f8161c191681555b5050505050600190811b01905550565b6113ee80620002a06000396000f3fe608060405234801561001057600080fd5b50600436106101165760003560e01c80637d7adffa116100a25780639ff8a343116100715780639ff8a34314610296578063bd6353da146102d7578063c0c59be414610301578063d9d60b5214610316578063f104a80d1461033e57600080fd5b80637d7adffa146102525780638b31fb891461025a5780638dea1b321461027a57806397db51d91461028d57600080fd5b80634fd66eae116100e95780634fd66eae146101eb5780635c4921291461021957806362f4fe4d146102225780636b4169c314610237578063717e1d301461023f57600080fd5b806326eedf9a1461011b5780632e0be39a1461014e578063400565051461015757806347b7cf34146101e3575b600080fd5b61013b610129366004610ee8565b60056020526000908152604090205481565b6040519081526020015b60405180910390f35b61013b60015481565b6101a9610165366004610ee8565b60046020526000908152604090206015810154601682015460179092015460ff80831693610100840482169362010000810483169363010000009091049092169186565b6040805160ff97881681529690951660208701529215159385019390935215156060840152608083019190915260a082015260c001610145565b61013b601e81565b6101fe6101f9366004610ee8565b610383565b60408051938452602084019290925290820152606001610145565b61013b60025481565b610235610230366004610f2e565b6103dd565b005b6101fe6103ed565b61023561024d366004610fdf565b610433565b61013b600a81565b61013b610268366004610ee8565b60066020526000908152604090205481565b61023561028836600461105e565b61073a565b61013b60035481565b6102bf6102a4366004611080565b6007602052600090815260409020546001600160a01b031681565b6040516001600160a01b039091168152602001610145565b6102ea6102e5366004610ee8565b610a4a565b6040805192835260ff909116602083015201610145565b610309610b4a565b6040516101459190611099565b610329610324366004610ee8565b610bd8565b60405161014599989796959493929190611110565b61037361034c366004610ee8565b6001600160a01b031660009081526004602052604090206015015462010000900460ff1690565b6040519015158152602001610145565b6001600160a01b03811660009081526005602090815260408083205460069092528220548291829182826103b85760006103cf565b826103c5836127106111af565b6103cf91906111cc565b929791965091945092505050565b60006103e98282611273565b5050565b600080600080600060025411610404576000610420565b600254600354610416906127106111af565b61042091906111cc565b6002546003549096909550909350915050565b3360008181526004602052604090206015015462010000900460ff16156104975760405162461bcd60e51b815260206004820152601360248201527247616d6520616c72656164792061637469766560681b60448201526064015b60405180910390fd5b8160005b600a8110156105d55760018282600a81106104b8576104b8611333565b6020020151101580156104e25750601e8282600a81106104da576104da611333565b602002015111155b6105245760405162461bcd60e51b8152602060048201526013602482015272125b9d985b1a59081c5d595cdd1a5bdb881251606a1b604482015260640161048e565b6000610531826001611349565b90505b600a8110156105c2578281600a811061054f5761054f611333565b60200201518383600a811061056657610566611333565b6020020151036105b05760405162461bcd60e51b8152602060048201526015602482015274111d5c1b1a58d85d19481c5d595cdd1a5bdb881251605a1b604482015260640161048e565b806105ba8161135c565b915050610534565b50806105cd8161135c565b91505061049b565b50600180549060006105e68361135c565b90915550503360009081526004602052604090206106068185600a610e76565b5060158101805463ffffffff1916620100001790554260168201556000601782018190555b600a81101561069657600082600a0182600a811061064b5761064b611333565b015560006014830182600a811061066457610664611333565b602091828204019190066101000a81548160ff021916908315150217905550808061068e9061135c565b91505061062b565b50600154600090815260076020908152604080832080546001600160a01b031916339081179091558352600590915281208054916106d38361135c565b9091555050600280549060006106e88361135c565b9190505550336001600160a01b03167fdd28fa68be5fe8771ff6d4148a44513c0194f82fe7fc8b93ad12899877f449bc600154864260405161072c93929190611375565b60405180910390a250505050565b3360008181526004602052604090206015015462010000900460ff166107935760405162461bcd60e51b815260206004820152600e60248201526d4e6f206163746976652067616d6560901b604482015260640161048e565b60038311156107db5760405162461bcd60e51b8152602060048201526014602482015273092dcecc2d8d2c840c2dce6eecae440d2dcc8caf60631b604482015260640161048e565b600382111561082c5760405162461bcd60e51b815260206004820152601c60248201527f496e76616c696420636f727265637420616e7377657220696e64657800000000604482015260640161048e565b3360009081526004602052604090206015810154600a60ff9091161061088d5760405162461bcd60e51b8152602060048201526016602482015275105b1b081c5d595cdd1a5bdb9cc8185b9cddd95c995960521b604482015260640161048e565b6015810154600a8083019160ff169081106108aa576108aa611333565b0154156108f95760405162461bcd60e51b815260206004820152601960248201527f5175657374696f6e20616c726561647920616e73776572656400000000000000604482015260640161048e565b601581015460ff1661090c856001611349565b82600a0182600a811061092157610921611333565b0155848414806014840183600a811061093c5761093c611333565b602091828204019190066101000a81548160ff021916908315150217905550801561099557601583018054610100900460ff1690600161097b83611399565b91906101000a81548160ff021916908360ff160217905550505b60015460408051918252602082018490528101879052811515606082015242608082015233907f7ea7b4468817083b67321770b715301eec03681e0b686b95636ec0174a71fa019060a00160405180910390a260158301805460ff169060006109fd83611399565b91906101000a81548160ff021916908360ff1602179055505080610a2957610a2433610d23565b610a42565b601583015460ff1660091901610a4257610a4233610d23565b505050505050565b6001600160a01b0381166000908152600460205260408120601501548190839062010000900460ff16610ab05760405162461bcd60e51b815260206004820152600e60248201526d4e6f206163746976652067616d6560901b604482015260640161048e565b6001600160a01b03841660009081526004602052604090206015810154600a60ff90911610610b1a5760405162461bcd60e51b8152602060048201526016602482015275105b1b081c5d595cdd1a5bdb9cc8185b9cddd95c995960521b604482015260640161048e565b6015810154819060ff16600a8110610b3457610b34611333565b015460159091015490935060ff16915050915091565b60008054610b57906111ee565b80601f0160208091040260200160405190810160405280929190818152602001828054610b83906111ee565b8015610bd05780601f10610ba557610100808354040283529160200191610bd0565b820191906000526020600020905b815481529060010190602001808311610bb357829003601f168201915b505050505081565b610be0610eb4565b610be8610eb4565b610bf0610eb4565b6001600160a01b03841660009081526004602052604080822060158101546016820154601783015484516101408101958690528695869586958695869592948594600a80870195601488019560ff8082169661010083048216966201000084048316966301000000909404909216949093928b919082845b815481526020019060010190808311610c6857505060408051610140810191829052949d508c9350600a9250905082845b815481526020019060010190808311610c9957505060408051610140810191829052949c508b9350600a92509050826000855b825461010083900a900460ff161515815260206001928301818104948501949093039092029101808411610ccc57905050505050509650995099509950995099509950995099509950509193959799909294969850565b6001600160a01b038116600090815260046020526040902060158101805462ff000019169081905542601783015560091961010090910460ff1601610e1f5760158101805463ff000000191663010000001790556001600160a01b0382166000908152600660205260408120805491610d9b8361135c565b909155505060038054906000610db08361135c565b9091555050600180546015830154604080519283526020830193909352610100900460ff16918101919091524260608201526001600160a01b038316907f4e471ae4960193218f099f992b574ce0bc04e6f33da2a9a6e1f8a8112fddc61b906080015b60405180910390a25050565b60015460158201546040805192835261010090910460ff16602083015242908201526001600160a01b038316907f5351fbdd3ed24a0f38ef601aba1132b4215620ed7b8f1ee2355ee08d69f2121a90606001610e13565b82600a8101928215610ea4579160200282015b82811115610ea4578251825591602001919060010190610e89565b50610eb0929150610ed3565b5090565b604051806101400160405280600a906020820280368337509192915050565b5b80821115610eb05760008155600101610ed4565b600060208284031215610efa57600080fd5b81356001600160a01b0381168114610f1157600080fd5b9392505050565b634e487b7160e01b600052604160045260246000fd5b600060208284031215610f4057600080fd5b813567ffffffffffffffff80821115610f5857600080fd5b818401915084601f830112610f6c57600080fd5b813581811115610f7e57610f7e610f18565b604051601f8201601f19908116603f01168101908382118183101715610fa657610fa6610f18565b81604052828152876020848701011115610fbf57600080fd5b826020860160208301376000928101602001929092525095945050505050565b6000610140808385031215610ff357600080fd5b83601f84011261100257600080fd5b60405181810181811067ffffffffffffffff8211171561102457611024610f18565b60405290830190808583111561103957600080fd5b845b8381101561105357803582526020918201910161103b565b509095945050505050565b6000806040838503121561107157600080fd5b50508035926020909101359150565b60006020828403121561109257600080fd5b5035919050565b600060208083528351808285015260005b818110156110c6578581018301518582016040015282016110aa565b506000604082860101526040601f19601f8301168501019250505092915050565b8060005b600a81101561110a5781518452602093840193909101906001016110eb565b50505050565b610480810161111f828c6110e7565b61112d61014083018b6110e7565b61028082018960005b600a8110156111575781511515835260209283019290910190600101611136565b50505060ff88166103c083015260ff87166103e08301528515156104008301528415156104208301526104408201939093526104600152979650505050505050565b634e487b7160e01b600052601160045260246000fd5b80820281158282048414176111c6576111c6611199565b92915050565b6000826111e957634e487b7160e01b600052601260045260246000fd5b500490565b600181811c9082168061120257607f821691505b60208210810361122257634e487b7160e01b600052602260045260246000fd5b50919050565b601f82111561126e57600081815260208120601f850160051c8101602086101561124f5750805b601f850160051c820191505b81811015610a425782815560010161125b565b505050565b815167ffffffffffffffff81111561128d5761128d610f18565b6112a18161129b84546111ee565b84611228565b602080601f8311600181146112d657600084156112be5750858301515b600019600386901b1c1916600185901b178555610a42565b600085815260208120601f198616915b82811015611305578886015182559484019460019091019084016112e6565b50858210156113235787850151600019600388901b60f8161c191681555b5050505050600190811b01905550565b634e487b7160e01b600052603260045260246000fd5b808201808211156111c6576111c6611199565b60006001820161136e5761136e611199565b5060010190565b838152610180810161138a60208301856110e7565b82610160830152949350505050565b600060ff821660ff81036113af576113af611199565b6001019291505056fea26469706673582212208daaa3263d7058f039f6ef153b1a5223540fe8300e4aed0af84f51647f9b384164736f6c63430008130033",
  "linkReferences": {},
  "deployedLinkReferences": {}
}